:020000040800F2
:10000000E847002005010008F54C0008D50100086C
:10001000F14C00089139000851520008000000001E
:1000200000000000000000000000000017010008B0
:10003000D93900080000000057010008ED4D000804
:100040001F0100081F0100081F0100081F01000810
:100050001F0100081F0100081F0100081F01000800
:100060001F0100081F0100081F0100081F010008F0
:100070001F0100081F0100081F0100081F010008E0
:100080001F0100081F0100081F0100081F010008D0
:100090001F0100081F0100081F0100081F010008C0
:1000A0001F0100081F0100081F0100081F010008B0
:1000B0001F0100081F0100080D4F00081F01000864
:1000C0001F0100081F0100081F0100081F01000890
:1000D0001F0100081F0100081F0100081F01000880
:1000E000DB3900081F0100081F010008DFF810D0ED
:1000F00000F050FD004800470F0C0008AFF30080EF
:10010000E84700200648804706480047FEE7FEE72C
:10011000FEE7FEE7FEE7FEE7FEE7FEE7FEE7FEE7B7
:10012000094F0008ED000008EFF3108072B6704729
:1001300080F310887047344A1368012B04D04FF0C5
:1001400001031360314A1060314A116031484FF0A9
:10015000805101607047EFF3108272B62A4801683F
:1001600091B14FF0000101602848016829B1EFF317
:10017000098121E9F00F00680160254909680968D3
:10018000B1E8F00F81F3098882F310884EF0040E75
:1001900070471F4908601D494FF0000008601A4968
:1001A0004FF0010008601C481C49D0F8002041EACB
:1001B0000201016017484FF0805101601848006843
:1001C000006880F3088861B662B6BFF34F8FBFF353
:1001D0006F8F70471EF0040F0CBFEFF30880EFF332
:1001E000098020E9F00F40F804ED1EF0040F0CBF69
:1001F00080F3088880F3098800B507F049FF5DF8AF
:1002000004EB4EF0040E7047FC010020F4010020C6
:10021000F801002004ED00E020ED00E00000FFFF09
:1002200008ED00E0202A04DB203A21FA02F0002148
:10023000704721FA02F3D040C2F1200291400843F6
:100240001946704740EA01039B0703D009E008C93B
:10025000121F08C0042AFAD203E011F8013B00F88B
:10026000013B521EF9D27047D2B201E000F8012BD7
:10027000491EFBD270470022F6E710B513460A4626
:1002800004461946FFF7F0FF204610BD421E12F843
:10029000013F002BFBD111F8013B02F8013B002B81
:1002A000F9D1704710B5044604E00B7800F8013B23
:1002B00003B1491C521EF8D2204610BD421C10F852
:1002C000011B0029FBD1801A704710B5002200E005
:1002D000521C835C8C5CA34201D1002BF8D1D8B2B4
:1002E000E1B2401A10BD30B505460020034600E0DB
:1002F0005B1C934205D2EC5CC85C201A01D1002C37
:10030000F6D130BDF0B480EA0102D40F4200B2EB66
:10031000410F02D20246084611464A0042D0C30DA0
:10032000DDB2C1F3C752AD1A202D35DAC1F3160183
:1003300041F4000204B15242C5F1200602FA06F16E
:100340002A411044B3EBD05F23D0C4B1012DA0EB00
:10035000C35009DCF0BC4FF0004202EAC352DBB2EA
:1003600000F5000000F043BB400000F1807000EB9E
:10037000C350A0F1807040EAD170490009E04908FB
:1003800041EAC071A0EBC35000F50000400800EB4B
:10039000C350F0BC00F022BB6142012202EB4101DC
:1003A000001BF6E7F0BC704781F00041AAE780F03F
:1003B0000040A7E780EA010210B502F000434000C8
:1003C00022D04A001FD0010E01EB1261C0F356008B
:1003D000C2F3560240F4000042F40002A0FB0220E7
:1003E00000047F39140400D0401C50EA124001D4AC
:1003F0004000491EC2B20C0604EBD010401C40085D
:10040000802A02D003E0002010BD20F00100002966
:1004100000DA0020184310BD30B480EA010202F077
:10042000004530F0004221F0004013D090B1C30DE0
:10043000D40DC2F31601C0F31600E41A41F4000112
:1004400040F400027D34914201D3641C00E0490075
:10045000002C02DA30BC002070474FF4000000236B
:10046000914201D3891A034340084FEA4101F7D171
:1004700051B1914202D14FF0004105E002D24FF05C
:10048000010101E06FF0010103EBC450284430BCCE
:1004900000F0A4BA2DE9FE4F804681EA0300C00FA8
:1004A0000C46009021F0004123F00045B8EB02001B
:1004B000A94105D24046214690461C460B460246BD
:1004C00023F00040104347D0270DC7F30A00C3F3C1
:1004D0000A510290401A019040286BDAC3F31300CE
:1004E00040F4801B0098924620B10023D2EB030A0F
:1004F00063EB0B0B01985946C0F14002504600F0E7
:100500004CFA06460D4650465946019A00F054FAF8
:1005100010EB08006141002487EA115284EAE77376
:100520001A4340D0009A62B3019A012A4FEA075257
:1005300015DC001B61EB02014FF0004202EA07529A
:10054000CDE90042001C41F5801132462B4600F0F7
:100550008BFA03B0BDE8F08F40462146F9E7001B57
:1005600061EB0201001C41F5801300185B4120186B
:10057000A2F5001747EB030140EAD570B6196D41AB
:1005800011E06D084FEA360645EAC0754FEA07529A
:10059000001B61EB0201001C41F5801149084FEA84
:1005A00030000019514132462B4603B0BDE8F04FF0
:1005B00000F04BBA0098012240000023D0EB020269
:1005C00063EBE073009821464FEAE074B8EB00005B
:1005D00061EB0401E9E783F000435BE781F0004150
:1005E00058E72DE9FE4F81EA030404F0004421F0AE
:1005F000004100944FF0000B23F0004350EA010447
:100600005ED052EA03045BD0C3F30A54C1F30A5527
:100610002C44A4F2F3340194A0FB0254C1F313015F
:1006200041F48011C3F3130343F4801301FB02442C
:1006300000FB034E840A970A44EA815447EA835731
:10064000A4FB076802958D0A05FB07854FEA932CEA
:1006500004FB0C542705029D4FEA065847EA16375B
:10066000B5EB08056EEB070C870E920E47EA811773
:1006700042EA8312A7FB0201B6EB0B0164EB000414
:100680002B0D43EA0C335E1844EB1C50DA465146FE
:10069000E7FB0201C5F313044FEA0B3343EA14539B
:1006A0004FEA0432019C43EA0603A4F10C040294CD
:1006B000009CCDE900B400F0D7F903B0BDE8F08F9D
:1006C00000200146F9E72DE9F04D81EA030404F02A
:1006D000004B21F0004514464FF0000A23F0004182
:1006E00050EA050220D054EA01021DD0C5F30A5792
:1006F0000246C5F31303C1F31300C1F30A5640F4D5
:10070000801543F48013A7EB0608101BD64608F2A9
:10071000FD3873EB050002D308F1010801E09218DF
:100720005B41B8F1000F03DA00200146BDE8F08D0F
:1007300000204FF48011064684460EE0171B73EB31
:10074000050705D3121B63EB050306434CEA010CB6
:1007500049084FEA300092185B4150EA0107EDD199
:1007600052EA030012D082EA040083EA050108433A
:1007700005D0101BAB4106D20122002306E0002267
:100780004FF0004302E06FF0010253101AEB060035
:100790004CEB085110EB0A0041EB0B01BDE8F04DAA
:1007A00000F053B9C10F80EAE0700844CA079623ED
:1007B000002100F01CB996230022114600F017B961
:1007C0000EB5C10F80EAE0700844CA07002140F26C
:1007D00033438DE80E000A460B4600F045F903B09E
:1007E00000BD0EB540F2334102910021CDE9001168
:1007F0000A460B4600F038F903B000BD00F0004295
:1008000020F00040C10DC0F3160040F400007F2925
:1008100001DA00207047962903DCC1F19601C84037
:1008200001E096398840002AF4D04042704720F019
:100830000040C10DC0F3160040F400007F2901DA2A
:1008400000207047962903DCC1F19601C84070472B
:1008500096398840704700F0004230F000400AD0DE
:10086000C10D01F56071C0F3160042EA0151C208E2
:1008700040071143704700200146704730B5041E01
:1008800071F1000404DB4FF00044404264EB0101CD
:10089000141E73F1000405DB1C464FF00043524266
:1008A00063EB04038B4208BF824230BD01F000437A
:1008B00030B421F0004150EA010206D00A0DA2F541
:1008C0006072C1F31301002A02DC30BC00207047C3
:1008D000440F44EAC104C100E01830BC00EBC25030
:1008E00000F07CB8002801DBC0F10040002901DBEA
:1008F000C1F1004181427047002801DBC0F1004096
:10090000002901DBC1F100418842704730B50B4638
:10091000014600202022012409E021FA02F59D422F
:1009200005D303FA02F5491B04FA02F52844151E03
:10093000A2F10102F1DC30BD2DE9F05F0546002097
:1009400092469B4688460646814640241BE0284640
:10095000414647462246FFF765FC53465A46C01AB1
:10096000914110D311461846224600F016F82D1A70
:1009700067EB01084F4622460120002100F00DF8E8
:1009800017EB00094E41201EA4F10104DFDC4846AC
:1009900031462A464346BDE8F09F202A04DB203A30
:1009A00000FA02F1002070479140C2F1200320FAC2
:1009B00003F3194390407047202A06DBCB17203AF7
:1009C00041FA02F043EAE07306E041FA02F3D04054
:1009D000C2F1200291400843194670470029A8BF80
:1009E0007047401C490008BF20F00100704710B458
:1009F000B0FA80FC00FA0CF050EA010404BF10BC0D
:100A0000704749B1CCF1200421FA04F411FA0CF139
:100A100018BF012121430843A3EB0C01CB1D4FEA72
:100A200000614FEA102042BF002010BC704700EB6D
:100A3000C35010440029A4BF10BC7047401C49009B
:100A400008BF20F0010010BC704710B5141E73F1F0
:100A5000000408DA401C41F1000192185B411A437E
:100A600001D120F0010010BD2DE9F04D92469B46CA
:100A700011B1B1FA81F202E0B0FA80F22032904670
:100A8000FFF78BFF04460F4640EA0A0041EA0B01DC
:100A900053465A46084313D0114653EA010019D071
:100AA000C8F140025046FFF7BDFB05460E465046D2
:100AB00059464246FFF771FF084305D0012004E084
:100AC00020463946BDE8F08D0020054346EAE07631
:100AD0002C4337430A986305E40AA0EB0800002280
:100AE000FD0A44EA47540A3002D500200146E9E7EE
:100AF000010510196941DDE9084500196941BDE8A2
:100B0000F04DA2E770B521F0004303430CD0C1F3D0
:100B10000A550024D5EB040564EB0403D617AD1A7F
:100B2000B34102DB0020014670BD201841EB0251A9
:100B300070BDC1F30A52C1F3130140F2FF3341F417
:100B400080119A4202DA00200146704740F2334396
:100B50009A42A2F2334202DC5242FFF763BBFFF734
:100B60001CBF000030B5041E71F1000404DB4FF01F
:100B70000044404264EB0101141E73F1000405DBE4
:100B80001C464FF00043524263EB0403994208BFF6
:100B9000904230BD064C074D06E0E06840F001038E
:100BA00094E8070098471034AC42F6D3FFF7A2FA56
:100BB00028AD000848AD000870B58C1810F8015B2E
:100BC00015F0070301D110F8013B2A1106D110F8E6
:100BD000012B03E010F8016B01F8016B5B1EF9D1EA
:100BE0002B0705D40023521E0DD401F8013BFAE770
:100BF00010F8013BCB1A921C03E013F8015B01F8DB
:100C0000015B521EF9D5A142D8D3002070BD10B5AA
:100C100009F0B9F9002010BD2DE9F0413649886985
:100C2000FFF719FE21F0004107460022334BFFF782
:100C30004AFD0546FFF73AFE04463148007803288E
:100C400015D1304AD1682C4A106AFFF755FE04D8F6
:100C50004FF07E502C49C86009E02A4A9169264A23
:100C6000106AFFF73FFE02D800202749C8602448D9
:100C70000078012818D12449C86A2146FFF742FBB1
:100C800005462148816A2846FFF72CFE07D81E49F1
:100C9000C86A2146FFF736FB1B49C86219E01A48AB
:100CA000806A1949C86214E015480078022810D1FA
:100CB0001549C86A2146FFF71FFE07D81249C86ABE
:100CC0002146FFF771FB1049C86202E000200E497F
:100CD000C8620D4A916AD06AFFF79EFB0A49C86054
:100CE000C8684FF07E51FFF707FE03D24FF07E50E9
:100CF0000549C860BDE8F081580300200020AC40E1
:100D0000100000202C0000208800002010B500F00A
:100D100001F810BD2DE9F0413449C8693449FFF7A5
:100D200049FB0746FFF76AFD04B2002600252F485D
:100D3000806C08B9BDE8F0812E490988081B00289D
:100D400001DB014600E041420A2900DAF2E72949C5
:100D50000C80FA2C01DB01261CE0642C03DBFA2C4E
:100D600001DA022616E0002C03DB642C01DA0326EC
:100D700010E014F1C80F04DB14F10A0F01DA0426A5
:100D800008E014F5967F04DB14F1C80F01DA05269C
:100D900000E00626A4F1FA000A2190FBF1F070436E
:100DA00000F57A7085B240F21A40854201DD0546B1
:100DB00004E040F2EE20854200DA05462846FFF7BF
:100DC000FAFC80460C48416A4046FFF7F3FA0746B2
:100DD0000A49FFF721FB084988620A46D168906AF0
:100DE000FFF7E8FA0449C86200BFA3E758030020F0
:100DF00000002041820100208800002000007A4489
:100E00002DE9F0471249086A1249FFF7D3FA8246E2
:100E1000FFF70DFD1FFA80F9484600F0D3F80446AD
:100E2000FFF7DFFC074600220B4BFFF74CFC0546A3
:100E3000FFF73CFD0949C8600846406A88620A46D7
:100E4000D168906AFFF7B6FA0449C862BDE8F08736
:100E50005803002000007A4400408F4088000020A2
:100E600010B500240AE01E4A52F824101D4A1069E9
:100E7000FFF748FA1B490861601CC4B21A480079A0
:100E8000A042F0DC18490879FFF795FC04461549A3
:100E900008692146FFF7C0FA12490861104A116A31
:100EA000114A1279521E0E4B203353F83200FFF7CD
:100EB0007BFA0C4948610A4A91695069FFF77AFA4E
:100EC0000849886108480079401E0549203151F8D9
:100ED00030000449C8610248006A086210BD000081
:100EE0005803002088000020100000201CB51920A5
:100EF00015214FF480730022CDE900100A490BA0A0
:100F000008F007F9044654B900BF0BA007F008FA2F
:100F10000EA007F005FA12A007F002FA00BF204663
:100F200008F05AFA1CBD000051100008616E616C97
:100F300079736973000000001B5B33316D5B452FD3
:100F4000616E616C797369735D2000004372656145
:100F50007465205461736B204661696C0000000069
:100F60001B5B306D0D0A000070B512480078042834
:100F70001FD141F2883008F099F90F49086A0F49EA
:100F8000FFF718FA0646FFF752FC85B2284600F034
:100F900019F84FF47A7190FBF1F42046FFF702FC48
:100FA0000749C8600A46D168906AFFF703FA044906
:100FB000C86270BD100000205803002000007A4471
:100FC0008800002070B5044600261D480088A04215
:100FD00000DB32E01A48B0F8C800A04202DC4FF44F
:100FE0007A762AE0234664220021154806F0E6FEC0
:100FF00085B2134830F81500A04206D105EB8500F4
:101000004FF6FF7101EA400616E00D4830F8151062
:10101000681E0B4A32F81000091A681E32F81000D8
:10102000201A00EB8000400090FBF1F1681E00EBFD
:10103000800001EB400086B200BF304670BD00006A
:10104000B800002010B5FFF78FFFFFF7E5FD10BDDA
:10105000FFF7D6FE09E0FFF703FFFFF757FEFFF7A4
:10106000F1FF4FF47A7008F021F9F4E710B508F0B9
:1010700089FA1E490968884201D8002010BD1C4821
:10108000007808B10020F9E71A48C078012801D19A
:101090000020F3E717480078032808D015480078A7
:1010A000012804D00020144981F82000E6E7124A04
:1010B0001169124AD069FFF715FC04D200200E49CD
:1010C00081F82000DAE70C4A51690C4A5069FFF7B1
:1010D00009FC04D20020084981F82000CEE7012055
:1010E000054981F8200000BFC8E70000AC010020DE
:1010F000B0010020100000208401002088000020A2
:101100002DE9F0473548066A002700250024A0464F
:1011100001255BE032480079411B3048203050F80F
:10112000317031463846FFF73FF981462D48416915
:101130004846FFF7E1FB47D24FF000082848007906
:10114000411B2648203000EBC10004793CB92548FA
:10115000007E00F0020008BB4FF001081EE02048AE
:101160000179601C814209D11E48008B611E012259
:101170008A40104090B94FF001080FE01948008BE9
:10118000611E01228A40104040B91648008B611C44
:1011900001228A40104008B94FF00108B8F1010F50
:1011A00012D100BF10A007F0BBF8611C13A007F01C
:1011B000B7F816A007F0B4F800BF0A48008B012169
:1011C000A140084307490883681CC5B20448007958
:1011D000401CA8429EDCBDE8F087000058030020B8
:1011E00010000020840100201B5B33326D5B492F0F
:1011F000656E657267795D200000000042616C6178
:101200006E63652043656C6C3A2564001B5B306D32
:101210000D0A000010B5FFF729FF18B1FFF770FFA6
:1012200000F002F810BD000010B50D48008BB0B101
:101230000B49088B002102F0D3FA0949C86900F074
:1012400029F801200749087000BF07A007F068F8D7
:101250000AA007F065F80DA007F062F800BF10BD06
:1012600084010020B00100201B5B33326D5B492FED
:10127000656E657267795D200000000042616C61F7
:101280006E63652053746172740000001B5B306DE7
:101290000D0A000038B50446002000904FF47A7122
:1012A00004FB01F008F054F900906A46002104485C
:1012B000006808F00DFA0248006808F0B1FB38BD7C
:1012C000A801002070B50446012147F6FF7002F026
:1012D00087FA00200C4908700C49088341F28830D5
:1012E00008F036F9054608F04DF928440849086029
:1012F00000BF08A007F014F80BA007F011F80FA02A
:1013000007F00EF800BF70BDB0010020840100207E
:10131000AC0100201B5B33326D5B492F656E65723B
:1013200067795D200000000042616C616E6365209A
:1013300054696D657220456E640000001B5B306D62
:101340000D0A000010B560480078012846D0022838
:101350006BD0032802D004287CD18EE05A48407814
:10136000F0B95A48007800F00F00C8B9584890F812
:101370002000012814D0564A5168564AD068FFF719
:10138000B1FA0DD2002002F033FA00BF52A006F0ED
:10139000C7FF56A006F0C4FF58A006F0C1FF00BF6B
:1013A00049488078C8B94948008800F4F870A0B965
:1013B000474AD168474AD068FFF79EFA0DD200200D
:1013C00002F01DFA00BF44A006F0AAFF4DA006F0EF
:1013D000A7FF4AA006F0A4FF00BF72E03C4A1168D4
:1013E0003C4AD068FFF788FA0DD8012002F000FAD5
:1013F00000BF39A006F094FF46A006F091FF3FA081
:1014000006F08EFF10E03048407801280CD102F041
:10141000EFF900BF30A006F083FF3EA006F080FF8A
:1014200036A006F07DFF00BF4BE0294A9168294AAB
:10143000D068FFF757FA0ED8012002F0E0F900BF9C
:1014400025A006F06DFF36A006F06AFF2BA006F07F
:1014500067FF11E034E01C48807801280CD102F0CD
:10146000CEF900BF1CA006F05BFF2DA006F058FFD0
:1014700022A006F055FF00BF23E01348807868B92A
:10148000002002F0BCF900BF13A006F049FF1DA028
:1014900006F046FF19A006F043FF00BF0A48407857
:1014A00068B9002002F0A4F900BF0BA006F038FFD5
:1014B0000EA006F035FF11A006F032FF00BF00E0DD
:1014C00000BF00BF10BD0000100000202C00002055
:1014D00084010020880000201B5B33326D5B492FA4
:1014E000656E657267795D20000000004368617277
:1014F0006765205374617274000000001B5B306DDF
:101500000D0A000044697363686172676520537453
:10151000617274004368617267652053746F700074
:101520004469736368617267652053746F7000006B
:1015300001200149C87070471000002001200149B6
:1015400048707047100000200120014988707047E2
:101550001000002010B500F05DFB10BD10B502F0CA
:10156000C7F950B100BF0BA006F0DAFE0DA006F0DF
:10157000D7FE10A006F0D4FE0AE000BF05A006F0DA
:10158000CFFE0EA006F0CCFE0AA006F0C9FE00BFFA
:1015900010BD00001B5B33326D5B492F636D645DD2
:1015A000200000004C6F61642044657465637465BD
:1015B000640000001B5B306D0D0A00004E6F204C74
:1015C0006F6164205761732044657465637465645A
:1015D0000000000000200149C87070471000002082
:1015E0000020014948707047100000200020014988
:1015F00088707047100000201CB5192016214FF488
:1016000000730022CDE90010164917A007F081FDF4
:10161000044654B900BF16A006F082FE19A006F0D9
:101620007FFE1DA006F07CFE00BF204607F0D4FE22
:101630000420142300221A4900901AA008F0D6F8BA
:101640001A4908600846006850B900BF08A006F0B3
:1016500067FE17A006F064FE0FA006F061FE00BF53
:101660001CBD0000C5160008656E65726779000034
:101670001B5B33316D5B452F656E657267795D204D
:1016800000000000437265617465205461736B2033
:101690004661696C000000001B5B306D0D0A0000A4
:1016A000C512000842616C616E636500A8010020EC
:1016B0004372656174652054696D65722046616985
:1016C0006C00000006E0FFF7A5FDFFF73BFEC82019
:1016D00007F0ECFDF7E7000070B54D49C868002140
:1016E000FFF700F914D1012240214A4802F036FBED
:1016F00001228021474802F031FB012211024548B6
:1017000002F02CFB01225102424802F027FB7EE04E
:101710003F49C868FFF79FF8044600223E4BFFF799
:10172000ADF815D8012240213A4802F017FB0122FA
:101730008021384802F012FB01221102354802F0E4
:101740000DFB00224FF40071324802F007FB5EE00F
:101750002F49C868FFF77FF8044600222F4BFFF798
:101760008DF816D8012240212A4802F0F7FA01220A
:101770008021284802F0F2FA00224FF480712548B7
:1017800002F0ECFA00224FF40071224802F0E6FA6F
:101790003DE01F49C868FFF75EF804460022204B71
:1017A000FFF76CF816D8012240211A4802F0D6FA49
:1017B00000228021174802F0D1FA00224FF48071F4
:1017C000144802F0CBFA00224FF40071114802F0E5
:1017D000C5FA1CE00E49C8684FF07E51FFF782F849
:1017E00015D8002240210B4802F0B8FA00228021CF
:1017F000084802F0B3FA00224FF48071054802F065
:10180000ADFA00224FF40071024802F0A7FA70BD51
:1018100088000020000C01400000D03F0000E03FA5
:101820000000E83F1CB5192000904FF4007300221F
:101830000A4901900AA007F06CFC044654B900BFA5
:1018400009A006F06DFD0CA006F06AFD0FA006F0E1
:1018500067FD00BF204607F0BFFD1CBD95180008BE
:10186000696E666F000000001B5B33316D5B452FB6
:10187000696E666F5D200000437265617465205477
:1018800061736B204661696C000000001B5B306D6A
:101890000D0A000005E0FFF71FFF4FF4FA6007F0A4
:1018A00005FDF8E71CB5192013214FF40073002241
:1018B000CDE900100A490BA007F02BFC044654B9EF
:1018C00000BF0AA006F02CFD0DA006F029FD11A016
:1018D00006F026FD00BF204607F07EFD1CBD00007F
:1018E000F51900086D6F696E746F72001B5B333100
:1018F0006D5B452F6D6F6E69746F725D2000000027
:10190000437265617465205461736B204661696C34
:10191000000000001B5B306D0D0A000010B52D4863
:101920000088FA302B4908802B480078012809D11B
:1019300008460088FA2805DB01F0B2FF002025499F
:10194000088005E02448007810B90020214908806B
:1019500022480088FA30214908802148007801286F
:1019600009D108460088FA2805DB01F05BFF00205A
:101970001A49088005E01A48007810B90020174974
:10198000088018480088FA30164908801648007800
:1019900001280AD108460088B0F5FA6F05DB01F08E
:1019A0004DFF00200F49088005E00F48007810B96E
:1019B00000200C4908800D480078012808D10C4807
:1019C0000078012804D101F021FF002007490870A8
:1019D00010BD00001E000020190000202200002081
:1019E0001A000020200000201B000020180000200A
:1019F0001C00002007E0FFF791FF00F00BF84FF408
:101A00007A7007F053FCF6E701200149087070472F
:101A10001800002010B561480078614909788842B3
:101A20003ED05E480078012829D002281BD0032828
:101A30000DD004282FD100BF5AA006F071FC5EA083
:101A400006F06EFC60A006F06BFC00BF23E000BF58
:101A500054A006F065FC5EA006F062FC5AA006F0F9
:101A60005FFC00BF17E000BF4EA006F059FC5CA071
:101A700006F056FC54A006F053FC00BF0BE000BF7C
:101A800048A006F04DFC5AA006F04AFC4EA006F015
:101A900047FC00BF00BF00BF4048007840490870C5
:101AA0003E480078052876D2DFE800F074405A17E7
:101AB0000300524988695249FEF71EFF03D80120EE
:101AC0003649087008E04D4988694E49FEF70AFF1B
:101AD00002D80220314908705DE0484988694849C8
:101AE000FEF70AFF03D801202C49087008E043499B
:101AF00088694449FEF7F6FE02D80220274908709B
:101B000041480068FA3040490860084600683F498B
:101B100088420AD33E4890F82000012805D00420CE
:101B20001E49087000203849086034E0334988694C
:101B30003349FEF7D7FE12D2304988693149FEF7A2
:101B4000DBFE03D203201549087008E02B498869A1
:101B50002C49FEF7C7FE02D80220104908701AE08F
:101B6000264988692749FEF7C7FE12D223498869AA
:101B70002349FEF7B7FE03D203200849087008E0A6
:101B80001E4988691E49FEF7B7FE02D801200349A5
:101B9000087000E000BF00BF10BD00001000002072
:101BA000240000201B5B33326D5B492F6D6F6E6923
:101BB000746F725D200000005379734D6F64653A55
:101BC000536C6565700000001B5B306D0D0A0000F2
:101BD0005379734D6F64653A5374616E6462790032
:101BE0005379734D6F64653A4469736368670000A5
:101BF0005379734D6F64653A43686700580300205A
:101C00000AD7A33C0AD7A3BC2800002080EE3600E8
:101C100084010020F0B593B0002400BFADA006F011
:101C20007FFBB0A006F07CFBBDA006F079FB00BFF7
:101C3000BD49886AFEF70FFE05462A460B46BBA142
:101C400003A803F007FB00BFA2A006F069FB03A9ED
:101C5000BEA006F065FBB2A006F062FB00BFB24971
:101C6000C86AFEF7F8FD05462A460B46B8A103A848
:101C700003F0F0FA00BF97A006F052FB03A9B3A04F
:101C800006F04EFBA6A006F04BFB00BFA5A006F099
:101C900047FBA549C868B749FEF78CFB0746FEF726
:101CA000DAFD05462A460B46B3A103A803F0D2FA93
:101CB00000BF88A006F034FB03A9A4A006F030FB07
:101CC00097A006F02DFB00BF96A006F029FB9649D1
:101CD000C869FEF7C0FD05462A460B46ACA103A81D
:101CE00003F0B8FA00BF7BA006F01AFB03A997A087
:101CF00006F016FB8AA006F013FB00BF8A49086AAB
:101D0000FEF7A9FD05462A460B46A8A103A803F045
:101D1000A1FA00BF6FA006F003FB03A98BA006F099
:101D2000FFFA7FA006F0FCFA00BF7F494869FEF782
:101D300092FD05462A460B46A3A103A803F08AFAA2
:101D400000BF64A006F0ECFA03A980A006F0E8FA50
:101D500073A006F0E5FA00BF73490869FEF77BFD42
:101D600005462A460B46A0A103A803F073FA00BF5C
:101D700058A006F0D5FA03A974A006F0D1FA68A01D
:101D800006F0CEFA00BF68498869FEF764FD054693
:101D90002A460B469AA103A803F05CFA00BF4DA0A7
:101DA00006F0BEFA03A969A006F0BAFA5CA006F034
:101DB000B7FA00BF5BA006F0B3FA96494869FEF790
:101DC0004AFD05462A460B4693A103A803F042FAB2
:101DD00000BF40A006F0A4FA03A95CA006F0A0FA98
:101DE0004FA006F09DFA00BF8A498869FEF733FDCF
:101DF00005462A460B468EA103A803F02BFA00BF26
:101E000034A006F08DFA03A950A006F089FA44A088
:101E100006F086FA00BF00BF1AE07E491C3151F877
:101E20002400FEF718FD621CCDE9000186A103A87D
:101E300003F010FA00BF27A006F072FA03A943A02E
:101E400006F06EFA36A006F06BFA00BF601CC4B252
:101E50007048806CA042E0D832A006F061FA0024FD
:101E600026E06C4951F82400FEF7F5FC05460E46C5
:101E70007B48008B0121A1400840002801DD79A0AA
:101E800000E03BA0621C79A1CDE90056029003A8B6
:101E900003F0E0F900BF0FA006F042FA03A92BA05F
:101EA00006F03EFA1EA006F03BFA00BF601CC4B26A
:101EB00076480079A042D4DC00BF06A006F030FAD4
:101EC00008A006F02DFA16A006F02AFA00BF13B0FB
:101ED000F0BD00001B5B306D5B442F696E666F5D6B
:101EE000200000002A2A2A2A2A2A2A2A2A2A2A2ADA
:101EF0002A2A2A2A2A2A2A2A2A2A2A2A2A2A2A2A42
:101F00002A2A2A2A2A2A2A2A2A2A2A2A2A2A2A2A31
:101F10002A2A2A2A2A2A2A2A2A2A2A2A2A2A000075
:101F20001B5B306D0D0A0000880000204261747454
:101F3000657279205265616C2043617061636974D8
:101F400079203D20252E336641680000257300006E
:101F5000426174746572792052656D61696E2043C7
:101F600061706163697479203D20252E3366416874
:101F7000000000000000C84242617474657279205C
:101F8000534F43203D20252E3266252500000000BA
:101F900043656C6C20566F6C74616765204D617889
:101FA000203D20252E3366560000000043656C6CF2
:101FB00020566F6C74616765204D696E203D202549
:101FC0002E336656000000004D617820566F6C7409
:101FD00061676520446966666572656E6365203D6C
:101FE00020252E33665600004176657261676520B4
:101FF000566F6C74616765203D20252E3366560050
:10200000506F776572205265616C203D20252E331C
:10201000665700005803002042617474657279208D
:10202000566F6C74616765203D20252E336656001F
:10203000426174746572792043757272656E7420A2
:102040003D20252E3366410054656D7065726174C4
:10205000757265202564203D20252E326600000023
:102060008401002062616C616E63650043656C6C85
:10207000252D326420566F6C7461676520203D20E9
:10208000252D352E336656202573000010000020C4
:102090001CB5192014214FF400730022CDE9001063
:1020A0000A490BA007F035F8044654B900BF0AA04E
:1020B00006F036F90DA006F033F911A006F030F95C
:1020C00000BF204607F088F91CBD00000921000868
:1020D00070726F74656374001B5B33316D5B452FE9
:1020E00070726F746563745D2000000043726561F7
:1020F0007465205461736B204661696C00000000B8
:102100001B5B306D0D0A000006E000F011FB00F0D3
:1021100041F9C82007F0CAF8F7E7000010B50D48EC
:10212000007800F0200098B9012001F068FB094810
:10213000008840F020000749088000BF06A006F094
:10214000EFF80AA006F0ECF810A006F0E9F800BFDE
:1021500010BD00002C0000201B5B33336D5B572F3C
:1021600070726F746563745D20000000446973636E
:1021700068617267653A4F434420486172647761D1
:102180007265205472696767657200001B5B306D71
:102190000D0A000010B50D48007800F0010098B954
:1021A000012001F025FB0948008840F001000749A3
:1021B000088000BF06A006F0B3F80AA006F0B0F849
:1021C0000FA006F0ADF800BF10BD00002C000020ED
:1021D0001B5B33336D5B572F70726F746563745D77
:1021E000200000004368617267653A4F56204861DD
:1021F0007264776172652054726967676572000066
:102200001B5B306D0D0A000010B50D48007800F022
:10221000400098B9012001F0F2FA0948008840F026
:1022200040000749088000BF06A006F079F80AA020
:1022300006F076F810A006F073F800BF10BD00009D
:102240002C0000201B5B33336D5B572F70726F7453
:102250006563745D200000004469736368617267A0
:10226000653A534344204861726477617265205433
:1022700072696767657200001B5B306D0D0A0000B4
:1022800010B50D48007800F0100098B9012001F059
:10229000B6FA0948008840F010000749088000BFDE
:1022A00006A006F03DF80AA006F03AF810A006F0E5
:1022B00037F800BF10BD00002C0000201B5B33333B
:1022C0006D5B572F70726F746563745D2000000042
:1022D0004469736368617267653A55562048617254
:1022E00064776172652054726967676572000000E7
:1022F0001B5B306D0D0A000010B500BF05A006F095
:102300000FF809A006F00CF80DA006F009F800BFC0
:1023100010BD00001B5B33336D5B572F70726F7401
:102320006563745D20000000424D535F50726F740E
:102330006563745F487744657669636500000000F3
:102340001B5B306D0D0A000010B500BF05A005F045
:10235000E7FF09A005F0E4FF0CA005F0E1FF00BFD6
:1023600010BD00001B5B33336D5B572F70726F74B1
:102370006563745D20000000424D535F50726F74BE
:102380006563745F48774F76726400001B5B306D45
:102390000D0A000010B5A848008800287ED0A64885
:1023A000007800F00100B8B1A34A1169A34A106C8B
:1023B000FEF798FA0FD2A048008820F001009E494D
:1023C000088000BF9EA005F0ABFFA2A005F0A8FF0B
:1023D000A5A005F0A5FF72E09748007800F0020084
:1023E000002828D0A2480068C830A14908600846E3
:1023F00000684FF47A71B0FBF1F18F4890F82D002E
:1024000081425CD38C48008820F002008A49088011
:102410009849487801F0ECF900BF89A005F080FFE9
:1024200095A005F07DFF90A005F07AFF00BF002089
:102430008F49086043E08048007800F00400D8B17C
:102440007D4A516B7D4AD069FEF74CFA37D27A4803
:10245000008820F00400784908808649487801F017
:10246000C7F900BF76A005F05BFF88A005F058FF14
:102470007DA005F055FF22E06F48007800F00800CD
:10248000E8B16D4A516C6D4AD069FEF735FA16D243
:102490006948008820F00800674900E02BE00880C8
:1024A0007449487801F0A4F900BF65A005F038FF31
:1024B0007BA005F035FF6CA005F032FF00BF5E4841
:1024C000007800F01000B8B15B4AD1695B4A106A2D
:1024D000FEF712FA0FD25848008820F01000564933
:1024E000088000BF56A005F01BFF72A005F018FF82
:1024F0005DA005F015FF9DE04F48007800F020003A
:1025000040B372480068C8307049086008460068E7
:102510004FF47A71B0FBF1F1474890F82500814201
:10252000E9D34548008820F02000434908805149FC
:10253000887801F064F900BF41A005F0F1FE64A0C5
:1025400005F0EEFE48A005F0EBFE00BF00205F495D
:1025500008606FE03848007800F0400040B35B4806
:102560000068C83059490860084600684FF47A711D
:10257000B0FBF1F1304890F8220081425AD32E4846
:10258000008820F040002C4908803A49887801F002
:1025900036F900BF2AA005F0C3FE53A005F0C0FE27
:1025A00031A005F0BDFE00BF00204849086041E0B1
:1025B0002148007800F08000D8B11F4AD16B1F4A33
:1025C000D069FEF78FF935D21B48008820F08000D3
:1025D000194908802749887801F011F900BF18A02F
:1025E00005F09EFE46A005F09BFE1FA005F098FE9C
:1025F00020E01148008800F48070D8B10E4AD16CF8
:102600000E4AD069FEF778F914D20B48008820F4FE
:102610008070094908801749887801F0F0F800BFF8
:1026200007A005F07DFE3CA005F07AFE0EA005F0A7
:1026300077FE00BF10BD00002C00002058030020D2
:102640001B5B33326D5B492F70726F746563745D11
:10265000200000004368617267653A4F562052655A
:102660006C696576650000001B5B306D0D0A00002B
:1026700080000020100000204368617267653A4FB7
:1026800043432052656C696576650000436861725A
:1026900067653A4F54432052656C69657665000062
:1026A0004368617267653A4C54432052656C6965B2
:1026B000766500004469736368617267653A5556D0
:1026C0002052656C6965766500000000840000207A
:1026D0004469736368617267653A4F434420526589
:1026E0006C696576650000004469736368617267B0
:1026F000653A5343442052656C6965766500000075
:102700004469736368617267653A4F544420526547
:102710006C6965766500000044697363686172677F
:10272000653A4C54442052656C696576650000003A
:1027300010B557480078012802D002287ED165E004
:10274000544A916A544A9069FEF7D6F824D2534805
:102750000068C83051490860084600684FF47A7133
:10276000B0FBF1F14B4890F82C00814210D30120CE
:1027700001F03EF802204749088000BF48A005F05C
:10278000CFFD4CA005F0CCFD51A005F0C9FD00BF68
:1027900000204249086038E03F48806C00B910BD15
:1027A0003C4A116B3C4A926C521E3B4B1C3353F813
:1027B0002200FEF7A1F810D2012001F019F8042040
:1027C0003449088000BF36A005F0AAFD42A005F0FC
:1027D000A7FD3FA005F0A4FD17E02E4A116C2E4A7C
:1027E000D069FEF77FF810D2012001F001F808202F
:1027F0002849088000BF2AA005F092FD3DA005F001
:102800008FFD33A005F08CFD00BF3DE02248806CB9
:1028100000B9C4E71F4A916B1F4A926C521E1E4BAF
:102820001C3353F82200FEF767F812D2012000F0A3
:10283000E6FF80201749088000BF00E023E018A0D1
:1028400005F06EFD33A005F06BFD21A005F068FDDD
:1028500018E0104A916C104AD069FEF743F811D283
:10286000012000F0CCFF4FF480700A49088000BFBF
:102870000BA005F055FD2FA005F052FD14A005F0AA
:102880004FFD00BF00E000BF00BF00BF87E70000B2
:10289000100000202C000020580300207C000020A5
:1028A0001B5B33336D5B572F70726F746563745DA0
:1028B000200000004368617267653A4F434320502F
:1028C000726F746563742054726967676572000083
:1028D0001B5B306D0D0A00004368617267653A4FFB
:1028E00054432050726F7465637420547269676733
:1028F000657200004469736368617267653A4C549D
:10290000432050726F746563742054726967676501
:10291000720000004469736368617267653A4F54DE
:10292000442050726F7465637420547269676765E0
:10293000720000004469736368617267653A4C54C1
:10294000442050726F7465637420547269676765C0
:102950007200000000B58BB01A4801901A4802902E
:102960001A4803901A4804901A4805901A4806908D
:102970001A48079001208DF82000052101A8417711
:10298000022181770021C17701218DF824108DF873
:10299000251040F61C41ADF8281041F26801ADF851
:1029A000261003F07DFE01A800F0BAF9FEF77AFFC9
:1029B000FFF76EFBFEF79AFAFEF71EFEFEF732FFF8
:1029C0000BB000BD1D210008092200089521000858
:1029D0008122000849230008F9220008091A00088A
:1029E00038B5002400200090694600F0F9FA9DF8FF
:1029F000000000F0010038B144F001042C480068E8
:102A000010B12B49086880479DF8000000F00200D3
:102A100038B144F002042648406810B1244948689F
:102A200080479DF8000000F0040038B144F0040431
:102A30001F48806810B11E49886880479DF80000D3
:102A400000F0080038B144F008041948C06810B11B
:102A50001749C86880479DF8000000F0100038B1A1
:102A600044F010041248006910B111490869804708
:102A70009DF8000000F0200038B144F020040C481C
:102A8000406910B10A49486980479DF8000000F08C
:102A9000800038B144F080040548806910B10449D1
:102AA000886980472146002000F03EFE38BD0000C6
:102AB000DC03002038B504460D460020009065B9BF
:102AC00004F01F008DF80000C4F344108DF80100DD
:102AD000C4F384208DF8020011E004F01F00C0430D
:102AE000C0B28DF80000C4F34410C043C0B28DF8EA
:102AF0000100C4F38420C043C0B28DF80200032259
:102B00006946012000F09AFD38BD00001CB5002088
:102B10000090019018202A4908714020487119201E
:102B2000C8720822091D042000F088FD4FF47A7055
:102B300006F0BCFB08226946042000F0A3F99DF8CA
:102B4000000000F07F001E490979884229D19DF8D4
:102B500001001B494979884223D19DF80200184998
:102B6000897988421DD19DF803001549C9798842A9
:102B700017D19DF804001249097A884211D19DF8B5
:102B800005000F49497A88420BD19DF806000C498F
:102B9000897A884205D19DF807000949C97A884297
:102BA0000CD000BF07A005F0BBFB0BA005F0B8FBE5
:102BB00016A005F0B5FB00BF00BFFEE71CBD00007E
:102BC000A40300201B5B33316D5B452F62713736E8
:102BD0003932305D200000004251373639583020FC
:102BE000636F6E66696720726567697374657220CA
:102BF0006661696C2C506C656173652072657365E4
:102C00007420424D5320626F617264001B5B306D13
:102C10000D0A000070B504460D462DB908484079EC
:102C200020430749487104E005484079A04304491E
:102C3000487103484179052000F076FD70BD000021
:102C4000A403002010B50021042000F06DFD012137
:102C5000042000F069FD0221042000F065FD10BD94
:102C60002DE9F0412949502000F0BAF92749891C83
:102C7000592000F0B5F92549491C512000F0B0F960
:102C80002249343991F8341001F00C0140F26D12F0
:102C900002EB41011D4A343A92F8362001EB521002
:102CA000FDF78EFD06460022194BFDF70CFD04468C
:102CB000FDF7FCFD174908601448343890F83400DB
:102CC00000F00C0040F26D1101EB40000F49343967
:102CD00091F8361000EB51100F4908800B4834383A
:102CE00090F835007F2807DC0848343890F8350024
:102CF00040B20A49087006E00448343890F83500BC
:102D000040B206490870BDE8F0810000D8030020F9
:102D100000408F40B4010020B8010020BA0100201B
:102D200070B50446FFF78EFF4FF4FA7006F0BEFA56
:102D300000F068FC1C2221463448FDF783FAFFF7B7
:102D40008FFFA17F3248807961F30200304988719A
:102D5000217F2F48807961F3C4002D498871E17F7C
:102D60002B48C07961F303002949C871617F284865
:102D7000C07961F306102649C8712120015D2448FD
:102D8000007A61F30510224908722020015D204875
:102D9000007A61F387101E490872618C1D4A92F90E
:102DA0000020881AFDF7FEFC06461B4801683046E5
:102DB000FDF732FB0546FDF73AFD00F6F870C0F36B
:102DC000071013494872A18C124A92F90020881A00
:102DD000FDF7E8FC0646104801683046FDF71CFB8D
:102DE0000546FDF724FDC0F3071009498872FFF777
:102DF0008DFE00BF09A005F093FA0DA005F090FA32
:102E000013A005F08DFA00BF70BD0000DC030020A8
:102E1000A4030020BA010020B40100201B5B333260
:102E20006D5B492F627137363932305D200000000A
:102E30004251373639583020496E697469616C697E
:102E40007A65207375636365737366756C21000022
:102E50001B5B306D0D0A000010B50949042000F01D
:102E600049F90748001F407900F0010030B90448D3
:102E7000001F0079C00908B1012010BD0020FCE747
:102E8000A80300202DE9F74191B00D4617462021F7
:102E900008A8FDF7F0F908AC20216846FDF7EBF92A
:102EA0000820ADF8000000208DF80C0011A801905A
:102EB0000120ADF808000820ADF8100001218DF8C0
:102EC0001C1008A905917900ADF818100222694676
:102ED0002D4803F0E9FD02280ED000BF2BA005F01D
:102EE0001FFA2FA005F01CFA34A005F019FA00BF54
:102EF000002014B0BDE8F08111208DF8400020784A
:102F00008DF841000722022110A800F043FD06467B
:102F1000641C2078B0420CD000BF1CA005F000FA61
:102F200028A005F0FDF925A005F0FAF900BF002062
:102F3000DFE714F8010C28704FF001081FE0641C53
:102F400007220121204600F025FD0646641C6D1C69
:102F50002078B0420CD000BF0CA005F0E1F919A018
:102F600005F0DEF915A005F0DBF900BF0020C0E791
:102F700014F8010C287008F1010000F0FF08B845B2
:102F8000DDDB0120B5E70000C40100201B5B33310D
:102F90006D5B452F627137363932305D200000009D
:102FA0005265616420426C6F636B205769746820BE
:102FB000435243204661696C000000001B5B306D8A
:102FC0000D0A00005265616420426C6F636B204300
:102FD000524320436865636B204661696C000000C2
:102FE00033B58BB00D46202101A8FDF744F9082028
:102FF000ADF8040000208DF810000BA8029001200D
:10300000ADF80C000820ADF81400012101A80177EB
:103010000AA906910221ADF81C10022201A91B4841
:1030200003F042FD02280DD000BF19A005F078F989
:103030001CA005F075F924A005F072F900BF00206E
:103040000DB030BD11208DF824009DF828008DF8BA
:1030500025000722022109A800F09CFC04469DF8E7
:103060002900A0420CD000BF09A005F059F918A012
:1030700005F056F914A005F053F900BF0020DFE772
:103080009DF8280028700120DAE70000C401002024
:103090001B5B33316D5B452F627137363932305DE2
:1030A0002000000052656164205265676973746591
:1030B0007220427974652057697468204352432016
:1030C0004661696C000000001B5B306D0D0A00005A
:1030D0005265616420526567697374657220427934
:1030E00074652043524320436865636B20466169E1
:1030F0006C00000033B58BB00D46202101A8FDF710
:10310000BAF80820ADF8040000208DF810000BA8D4
:1031100002900120ADF80C000820ADF81400012148
:1031200001A801770AA906910421ADF81C1002221A
:1031300001A9294803F0B8FC02280DD000BF27A040
:1031400005F0EEF82AA005F0EBF832A005F0E8F85B
:1031500000BF00200DB030BD11208DF824009DF877
:1031600028008DF825000722022109A800F012FC92
:1031700004469DF82900A0420CD000BF17A005F01E
:10318000CFF826A005F0CCF822A005F0C9F800BFC2
:103190000020DFE7072201210DF12A0000F0FAFBF1
:1031A00004469DF82B00A0420CD000BF0BA005F0F8
:1031B000B7F81AA005F0B4F816A005F0B1F800BFF2
:1031C0000020C7E79DF828009DF82A1040EA01205A
:1031D00028800120BEE70000C40100201B5B3331C2
:1031E0006D5B452F627137363932305D200000004B
:1031F0005265616420526567697374657220576F08
:103200007264205769746820435243204661696C98
:10321000000000001B5B306D0D0A00005265616408
:1032200020526567697374657220576F726420431A
:10323000524320436865636B204661696C0000005F
:103240002DE9F041002424492A20FFF753FF50B90B
:1032500000BF22A005F064F825A005F061F82BA0BE
:1032600005F05EF800BF1C482A3890F82B001A4978
:103270002A3991F82A1040EA01242046FDF79BFAEA
:103280000546244801684FF08140FDF793F8064653
:103290002946FDF78FF820494861204991F900102F
:1032A00001EB8100FDF77EFA05461B48416928467F
:1032B000FDF728F8184948614869FDF7CCFA074638
:1032C0000022174BFDF7FFF90546FDF7EFFA12490B
:1032D0004861BDE8F0810000CE0300201B5B333164
:1032E0006D5B452F627137363932305D200000004A
:1032F00055706461746520426174746572792056FA
:103300006F6C74616765204661696C001B5B306D92
:103310000D0A0000B4010020F8030020BA010020CB
:1033200000408F402DE9F0410027002400250026B1
:103330000A221A490C20FFF7A5FD50B900BF18A0BA
:1033400004F0EEFF1BA004F0EBFF21A004F0E8FF67
:1033500000BF124D00241DE06878297800EB0120A1
:1033600087B21D48B0F9000078434FF47A7190FBA2
:10337000F1F61A4890F9000006443046FDF712FABB
:1033800080461749FDF748F8164941F82400AD1C5E
:10339000601CC4B2052CDFDBBDE8F081B003002067
:1033A0001B5B33316D5B452F627137363932305DCF
:1033B000200000005570646174652043656C6C20CA
:1033C000566F6C74616765204661696C000000008F
:1033D0001B5B306D0D0A0000B8010020BA0100200F
:1033E00000007A44F80300202DE9F04F87B04FF039
:1033F000000AD34625493220FFF77CFE50B900BFB2
:1034000023A004F08DFF27A004F08AFF2AA004F077
:1034100087FF00BF1D48323890F833001B4932390E
:1034200091F8321040EA01200FFA80FA0AF40040C5
:1034300028B16FEA0A00401C40420FFA80FA204887
:103440000068FDF708FACDE904015046FDF7AAF936
:103450000190FDF700FA80461A4A1B4BFDF7C1F8B0
:10346000CDE90201DDE90423FDF72DF906464FF011
:103470002042164BFDF7B5F80446FDF717FA8346D0
:103480001348C0F81CB007B0BDE8F08FD603002089
:103490001B5B33316D5B452F627137363932305DDE
:1034A0002000000055706461746520437572726578
:1034B0006E74204661696C001B5B306D0D0A000064
:1034C000BC010020E17A14AE47E12040F7C6B03ECF
:1034D000F80300202DE9F04F85B00024A146A34653
:1034E000A246002004901821042000F01DF950B9D4
:1034F00000BF30A004F014FF33A004F011FF39A086
:1035000004F00EFF00BF4FF4FA6005F0CFFE022278
:1035100036492C20FFF7B6FC50B900BF25A004F0B7
:10352000FFFE29A004F0FCFE2EA004F0F9FE00BF6F
:10353000DFF8B890002438E099F8010099F80010FD
:1035400040EA012B5846FDF74CF90746284A294B1B
:10355000FDF747F80546FDF7A9F982465046FDF705
:103560007AF905464FF06632234BFDF737F80746E8
:10357000884651462148FCF71DFF0546FDF76BF9CB
:103580003A464346CDE90001FDF79DF8CDE9020139
:10359000FDF78CF90490049801F002FD184941F8F8
:1035A0002400601CC4B209F10209012CC4DB05B07F
:1035B000BDE8F08F1B5B33316D5B452F6271373691
:1035C0003932305D2000000055706461746520540C
:1035D00073782054656D70657261747572652046EC
:1035E00061696C001B5B306D0D0A0000D003002088
:1035F0007978CF81E508393F66660A4000401C466D
:103600001004002010B501F087FB0122D1030A4805
:1036100000F0A4FB4FF47A7005F048FE00224FF44E
:103620000041054800F09AFB01F066FB4FF47A7008
:1036300005F03CFE10BD0000000801402DE9F041FE
:103640008CB007460D461646202104A8FCF713FE51
:103650000020009001900290039004AC102004F828
:10366000010B04F8017B287804F8010B07220321E1
:1036700004A800F08FF920704FF001080EE0641CE0
:103680006D1C2878207007220121204600F082F965
:103690006070641C08F1010000F0FF08B045EEDB2B
:1036A0000820ADF800000DF11100019000208DF808
:1036B0000C00012000EB4600ADF80800012269462D
:1036C0000A4803F0F1F901280ED000BF08A004F069
:1036D00027FE0CA004F024FE11A004F021FE00BF80
:1036E00000200CB0BDE8F0810120FAE7C401002001
:1036F0001B5B33316D5B452F627137363932305D7C
:1037000020000000577269746520426C6F636B2063
:103710005769746820435243204661696C00000079
:103720001B5B306D0D0A000030B585B004460D46B8
:103730000020009001900290039010208DF810005E
:103740008DF811408DF812500722032104A800F0D3
:1037500021F98DF813000820ADF800000DF11100DB
:10376000019000208DF80C000320ADF80800012224
:1037700069460A4803F098F901280DD000BF08A057
:1037800004F0CEFD0BA004F0CBFD13A004F0C8FDA7
:1037900000BF002005B030BD0120FBE7C4010020C0
:1037A0001B5B33316D5B452F627137363932305DCB
:1037B0002000000057726974652052656769737450
:1037C00065722042797465205769746820435243BA
:1037D000204661696C0000001B5B306D0D0A000023
:1037E00070B504460D4629462046FFF763F970BDC3
:1037F00010B5044621460120FFF70CFA10BD10B5A4
:10380000044621460220FFF705FA10BD10B5FFF768
:10381000EBFD0248C0690249886110BDF803002031
:103820005803002010B5FFF70BFD0248406902491C
:10383000486110BDF80300205803002070B5002433
:103840000025FFF747FE00BF17E0114951F824009B
:103850001049FDF751F80ED80D4951F824000E49D2
:10386000FDF740F807D80A4850F824100B4840F8F4
:103870002510681CC5B2601CC4B2012CE5DB0748EA
:103880001C38856429461C3000F036F870BD0000F5
:103890001004002000005CC20000FA427403002003
:1038A00010B50024FFF73EFD00BF10E00D4850F8B2
:1038B00024000D4941F82400084650F82410203017
:1038C00040F8341000EBC4004460601CC4B2052C06
:1038D000ECDB064B082205210348203000F02FF8CE
:1038E00010BD0000F80300205803002027620008E4
:1038F00010B5FFF7B1FA10BD2DE9F04105460E46AF
:10390000012718E0002412E0621C55F8221055F837
:103910002400FCF7F1FF09D255F82480601C55F80B
:10392000200045F82400601C45F82080641CF01B32
:10393000A042E9D87F1CB742E4D3BDE8F0812DE96D
:10394000F04705460F46164699464FF000080024FA
:103950004FF0010818E0002410E0621C02FB065141
:1039600004FB0650C847002807DD621C02FB065115
:1039700004FB0650324606F05EFB641CA7EB080011
:10398000A042EAD808F10108B845E4D3BDE8F087C1
:1039900000BFFEE770B503460C46002016E080210C
:1039A00011E000F080051DB14506280E504001E0F1
:1039B0004506280E1D780D4005B150400D4601EB1F
:1039C000D576C6F347010029EBD15B1C251EA4F177
:1039D0000106F4B2E3D170BD704710B54FF48050CA
:1039E00000F00CF810BD72B600BFFEE710B504463B
:1039F000B4F5805F01D1FEF7F3FF10BD10B50446AA
:103A000004480068204020B1024804602046FFF7C7
:103A1000EDFF10BD140401402DE9F84703460022D4
:103A200094466EE14FF0010808FA02F4D1F80080E4
:103A300008EA0400A0427DD1DFF8DCA2D1F80480BE
:103A4000A8EB0A09D0453AD014DCB8F1030F50D0E6
:103A500009DCB8F1000F31D0B8F1010F1CD0B8F17A
:103A6000020F49D120E0B8F1110F18D0B8F1120FB0
:103A700042D11EE0B9F5881F25D006DCB9F5803F9C
:103A800020D0B9F5801F37D11AE0B9F5001F18D042
:103A9000B9F5041F30D117E0D1F80CC02DE0D1F8F2
:103AA0000C8008F1040C28E0D1F80C8008F1080C17
:103AB00023E0D1F80C8008F10C0C1EE000BF00BF21
:103AC00000BF00BF00BF00BFD1F80880B8F1000FF1
:103AD00002D14FF0040C0BE0D1F80880B8F1010FCF
:103AE00003D14FF0080C1C6102E04FF0080C5C6140
:103AF00003E04FF0000C00E000BF00BFFF2801D83A
:103B0000984601E003F104084646FF2802D84FEA30
:103B1000820803E0A2F108084FEA88084746D6F871
:103B200000804FF00F0909FA07F928EA09080CFA92
:103B300007F900E088E048EA0908C6F80080D1F8F3
:103B4000048008F08058B8F1805F7DD100BFDFF8B5
:103B5000CC81D8F8188048F00108DFF8C091C9F886
:103B60001880C846D8F8188008F00108CDF8008001
:103B700000BF00BF4FEAB9384FEA920958F8295000
:103B80004FEA82784FEA18794FF00F0808FA09F8DF
:103B900025EA0805DFF88881434502D14FF0000887
:103BA00016E0DFF88081434502D14FF001080FE0B5
:103BB000DFF87481434502D14FF0020808E0DFF8D6
:103BC0006C81434502D14FF0030801E04FF0040837
:103BD0004FEA82794FEA197908FA09F848EA0505A7
:103BE000DFF84C814FEA920948F82950D1F8048057
:103BF00008F48018B8F5801F0AD1DFF83881D8F8AA
:103C0000008048EA0008DFF82C91C9F8008009E03C
:103C1000DFF82081D8F8008028EA0008DFF8149146
:103C2000C9F80080D1F8048008F40018B8F5001F26
:103C300010D1DFF8008108F10408D8F8008048EAC4
:103C40000008DFF8F09000E05AE009F10409C9F833
:103C500000800DE0DFF8DC8008F10408D8F800806F
:103C600028EA0008DFF8CC9009F10409C9F80080BF
:103C7000D1F8048008F40038B8F5003F0ED1DFF821
:103C8000B480A8F10408D8F8008048EA0008DFF8FA
:103C9000A490A9F10409C9F800800DE0DFF8948030
:103CA000A8F10408D8F8008028EA0008DFF884901A
:103CB000A9F10409C9F80080D1F8048008F480381B
:103CC000B8F5803F0ED1DFF86C80A8F10808D8F86D
:103CD000008048EA0008DFF85C90A9F10809C9F8FB
:103CE00000800DE0DFF84C80A8F10808D8F80080CB
:103CF00028EA0008DFF83C90A9F10809C9F800801B
:103D0000521CD1F8008028FA02F8B8F1000F7FF4B5
:103D100089AEBDE8F88700000000111000100240D5
:103D200000080140000C0140001001400014014057
:103D30000800014008040140024693680B400BB1A3
:103D4000012000E00020704710B5C26821EA02039C
:103D500002EA010443EA0443036110BD0AB10161B0
:103D600001E00B04036170470148006870470000E0
:103D7000000000200348006803490978084401490D
:103D800008607047000000200800002010B50848B7
:103D9000006840F0100006490860032000F0DCF8DD
:103DA0000F2000F007F800F05FF8002010BD0000C1
:103DB000002002402DE9F04188B004460027B846B3
:103DC000002600BF2348C06940F004002149C861B3
:103DD0000846C06900F00400019000BF00BF02A9BE
:103DE00003A800F093F9069F1FB900F0B7F9054644
:103DF00002E000F0B3F945001748B5FBF0F0A0F180
:103E0000010816481649086040F2E7311448C160BD
:103E1000C0F80480002101618160816100F044FCF0
:103E2000064696B90E4800F073FC06466EB91E2091
:103E300000F044F8102C07D2002221461E2000F08A
:103E40004DF80848046000E00126304608B0BDE89F
:103E5000F08100000010024040420F0000080040C6
:103E6000100300200400002008B500BF114880693D
:103E700040F001000F4988610846806900F00100A8
:103E8000009000BF00BF00BF0846C06940F08050EE
:103E9000C8610846C06900F08050009000BF00BFB4
:103EA00000BF0549486820F0E06040F000704860BD
:103EB00000BF08BD00100240000001400146084656
:103EC000002809DB00F01F0301229A4043099B00F0
:103ED00003F1E023C3F8002100BF70472DE9F05F34
:103EE00080460D461646002701F0C8F907463946B8
:103EF0002A46334601F00700C0F1070ABAF1040F61
:103F000002D94FF0040A01E0C0F1070AD14600F1DE
:103F1000040ABAF1070F02D24FF0000A01E0A0F143
:103F2000030AD4464FF0010A0AFA09FAAAF1010A73
:103F30000AEA020A0AFA0CFA4FF0010B0BFA0CFB20
:103F4000ABF1010B0BEA030B4AEA0B042146404696
:103F500001F09CF9BDE8F09F00BF00F00702064B9E
:103F600019684FF6FF031940044B0B4343EA022143
:103F7000014B196000BF70470CED00E00000FA052E
:103F800070B504460D460CB9012070BD5A48006852
:103F900000F00700A8420ED25748006820F0070042
:103FA0002843554908600846006800F00700A84209
:103FB00001D00120E9E7207800F0020002281DD19D
:103FC000207800F00400042805D14C48406840F4F3
:103FD000E0604A494860207800F00800082805D1D0
:103FE0004648406840F4605044494860434840684F
:103FF00020F0F000A168084340494860207800F0B4
:10400000010078B36068012806D13C48006800F4DC
:10401000003090B90120B8E76068022806D137481F
:10402000006800F0007040B90120AEE73348006836
:1040300000F0020008B90120A7E73048406820F0EE
:104040000300616808432D494860FFF78DFE06466E
:1040500009E0FFF789FE801B41F28831884202D9CE
:10406000032092E707E02548406800F00C006168F3
:10407000B0EB810FEDD12048006800F00700A842A6
:104080000ED91D48006820F0070028431A4908602F
:104090000846006800F00700A84201D0012074E73C
:1040A000207800F00400042807D11448406820F468
:1040B000E060E168084311494860207800F008009A
:1040C000082808D10D48406820F46050216940EA72
:1040D000C1000A49486000F061F808494968C1F325
:1040E0000311074A515CC840064908600648006849
:1040F000FFF760FE002048E7002002400010024069
:1041000098A100080C000020040000200F2202608B
:104110000D4A526802F0030242600B4A526802F0F4
:10412000F0028260084A526802F4E062C260064A05
:10413000526802F46052D2080261044A126802F026
:1041400007020A6070470000001002400020024091
:1041500001480068704700000C00002000B5FFF720
:10416000F7FF04494968C1F30221034A515CC84082
:1041700000BD000000100240A8A1000800B5FFF734
:10418000E7FF04494968C1F3C221034A515CC840B2
:1041900000BD000000100240A8A1000870B5002179
:1041A0000022002400230020134D696801F00C0553
:1041B000F5B1042D02D0082D19D101E00F4819E006
:1041C0000F4DC1F38346AB5D01F4803555B10A4D07
:1041D0006D68C5F340450B4E725D084D5D43B5FB00
:1041E000F2F402E0084D03FB05F4204602E000BFB4
:1041F000024800BF00BF70BD0010024000127A00EC
:1042000086A1000896A1000800093D00F8B5044603
:104210000CB90120F8BD207800F00100002878D00A
:10422000F848406800F00C0004280CD0F5484068BD
:1042300000F00C00082811D1F248406800F48030EA
:10424000B0F5803F0AD1EF48006800F40030002844
:104250005FD0606800285CD10120DBE700BF6068A8
:10426000B0F5803F06D1E748006840F48030E5496A
:10427000086028E0606858B9E248006820F480309F
:10428000E04908600846006820F4802008601AE0D1
:104290006068B0F5A02F0BD1DA48006840F48020A8
:1042A000D84908600846006840F4803008600AE099
:1042B000D448006820F48030D2490860084600687D
:1042C00020F48020086000BF606888B1FFF74CFDD3
:1042D000054606E0FFF748FD401B642801D903208E
:1042E00098E7C848006800F400300028F2D010E0D9
:1042F000FFF73AFD054606E0FFF736FD401B642850
:1043000001D9032086E7BF48006800F40030002888
:10431000F2D1207800F00200022857D1B948406855
:1043200000F00C0050B1B748406800F00C000828BD
:1043300018D1B448406800F4803098B9B14800689A
:1043400000F0020020B12069012801D0012061E7BE
:10435000AC48006820F0F800616940EAC100A94952
:10436000086033E02069E8B10120A7490860FFF741
:10437000FBFC054606E0FFF7F7FC401B022801D9CD
:10438000032047E79F48006800F002000028F2D0B1
:104390009C48006820F0F800616940EAC100994932
:1043A000086013E0002098490860FFF7DDFC05462F
:1043B00006E0FFF7D9FC401B022801D9032029E7BA
:1043C0009048006800F002000028F2D1207800F048
:1043D000080008282DD1A069B8B101208B490860D8
:1043E000FFF7C2FC054606E0FFF7BEFC401B0228B3
:1043F00001D903200EE78348406A00F0020000283C
:10440000F2D0012000F09AFC13E000207F49086000
:10441000FFF7AAFC054606E0FFF7A6FC401B0228B2
:1044200001D90320F6E67748406A00F00200002830
:10443000F2D1207800F00400042873D100277148DD
:10444000C06900F0805070B900BF6E48C06940F08C
:1044500080506C49C8610846C06900F080500090E7
:1044600000BF00BF01276A48006800F48070B0B93F
:104470006748006840F4807065490860FFF774FC85
:10448000054606E0FFF770FC401B642801D90320B5
:10449000C0E65F48006800F480700028F2D000BFDA
:1044A000E068012806D15748006A40F001005549EC
:1044B000086227E0E06858B95248006A20F001001D
:1044C000504908620846006A20F00400086219E0BA
:1044D000E06805280BD14B48006A40F004004949C8
:1044E00008620846006A40F0010008620AE0454898
:1044F000006A20F00100434908620846006A20F083
:104500000400086200BFE068A0B1FFF72DFC05467B
:1045100009E0FFF729FC401B41F28831884202D9AB
:10452000032077E622E03748006A00F00200002806
:10453000EFD012E0FFF718FC054608E0FFF714FC87
:10454000401B41F28831884201D9032062E62D48A0
:10455000006A00F002000028F0D1012F05D129489F
:10456000C06920F080502749C86100BFE069C8B326
:104570002448406800F00C00082860D0E069022858
:1045800048D1002020490866FFF7EEFB054606E00B
:10459000FFF7EAFB401B022801D903203AE619483D
:1045A000006800F000700028F2D1206AB0F5803F6A
:1045B00007D11448406820F40030A168084311492D
:1045C0004860D4E9080108430E49496821F4741190
:1045D00008430C49486001200B490866FFF7C4FBFB
:1045E000054607E03DE0FFF7BFFB401B022801D96D
:1045F00003200FE60348006800F000700028F2D0A6
:104600002FE00000001002400000424280044242BD
:1046100000700040002014490866FFF7A5FB05461E
:1046200006E0FFF7A1FB401B022801D90320F1E5BA
:104630000E48006800F000700028F2D111E0E06937
:10464000012800D1E6E50948466806F48031206A71
:10465000814204D106F47011606A814201D00120C8
:10466000D8E50020D6E500000000424200100240DC
:1046700070B504462546681EB0F1807F01D3012045
:104680000FE0681E4FF0E02148610F214FF0FF302E
:1046900000F0FCFD00204FF0E02188610720086158
:1046A000002070BD7047704710B504460CB901205A
:1046B00010BD94F83D0028B9002084F83C00204645
:1046C00000F025F8022084F83D00211D206800F04C
:1046D00025FC012084F8460000BF84F83E0001213B
:1046E0003F200155402001554120015500BF00BF2A
:1046F000012084F842004320015544200155452003
:10470000015500BF012084F83D000020D0E770472C
:10471000014691F83D00012801D001207047022098
:1047200081F83D000868C06840F001000B68D8605F
:10473000124B086898420BD00868B0F1804F07D040
:104740000F4B0868984203D00E4B086898420CD172
:104750000868806800F00702062A0CD00868006824
:1047600040F001000B68186005E00868006840F040
:1047700001000B6818600020D0E70000002C014009
:104780000004004000080040704770B504462068EF
:10479000C5682068066906F00200022819D105F0F4
:1047A0000200022815D1401F2168086101202077EE
:1047B0002068806900F0030018B12046FFF7E4FF8D
:1047C00005E0204600F097F8204600F095F800201C
:1047D000207706F00400042819D105F0040004280D
:1047E00015D1C043216808610220207720688069C4
:1047F00000F4407018B12046FFF7C6FF05E02046E0
:1048000000F079F8204600F077F80020207706F0D5
:104810000800082819D105F00800082815D1C04360
:1048200021680861042020772068C06900F0030037
:1048300018B12046FFF7A8FF05E0204600F05BF81E
:10484000204600F059F80020207706F010001028CC
:1048500019D105F01000102815D1C0432168086156
:10486000082020772068C06900F4407018B1204605
:10487000FFF78AFF05E0204600F03DF8204600F0F3
:104880003BF80020207706F0010048B105F0010058
:1048900030B16FF0010021680861204600F02EF869
:1048A00006F08000802809D105F08000802805D11D
:1048B000C043216808612046FFF7F4FE06F040007F
:1048C000402809D105F04000402805D1C0432168A7
:1048D0000861204600F01EF806F02000202809D1CB
:1048E00005F02000202805D1C0432168086120463A
:1048F000FFF7D9FE70BD70477047000010B5044641
:1049000003492068884201D1FFF734FA10BD000046
:1049100000080040704710B504460CB9012010BDD6
:10492000A06900B100E000BF94F8410028B9002060
:1049300084F84000204600F029F8242084F8410043
:104940002068C06820F400502168C860204600F04C
:10495000BBFB2068006920F4904021680861206852
:10496000406920F02A00216848612068C06840F44E
:1049700000502168C86000206064202084F8410055
:1049800084F842000020606300BFC8E710B586B01D
:104990000446002002900390049005901A49206874
:1049A00088422ED100BF1948806940F480401749E1
:1049B00088610846806900F48040019000BF00BF14
:1049C00000BF0846806940F004008861084680699D
:1049D00000F00400019000BF00BF481502900220C3
:1049E00003900320059002A90948FFF715F84FF43A
:1049F0008060029000200390049002A90448FFF711
:104A00000BF806B010BD0000003801400010024055
:104A1000000801402DE9F84F04460E461746994616
:104A20004FF0000A94F84200202852D106B117B97D
:104A30000120BDE8F88F00206064222084F8420045
:104A400000202063FFF790F98246A785E785A068DC
:104A5000B0F5805F04D1206910B90025B04602E0AE
:104A600035464FF000082CE0534600222021204616
:104A7000CDF8009000F0A6FB20B1202084F8420081
:104A80000320D6E745B920684068C0F30800A8F8BD
:104A9000000008F1020811E0A068B0F5805F03D0C3
:104AA000A06828B9206918B920684068287004E017
:104AB0002068406800F07F0028706D1CE08D401E6B
:104AC000E085E08D0028CFD1202084F8420000202E
:104AD000AFE70220ADE72DE9F84F04460E46174632
:104AE00099464FF0000A94F84100202850D106B1B1
:104AF00017B90120BDE8F88F00206064212084F8F8
:104B00004100FFF731F98246A784E784A068B0F539
:104B1000805F04D1206910B90025B04602E0354617
:104B20004FF000081EE05346002280212046CDF8B9
:104B3000009000F047FB20B1202084F841000320C2
:104B4000D8E745B9B8F80000C0F30800216848600C
:104B500008F1020803E02878216848606D1CE08CA9
:104B6000401EE084E08C0028DDD153460022402125
:104B70002046CDF8009000F025FB20B1202084F8DD
:104B800041000320B6E7202084F841000020B1E76F
:104B90000220AFE710B5FBF7C7FA0149086010BD66
:104BA000C00100207047000010B502480068FBF704
:104BB000BFFA10BDC001002000B585B000200190F3
:104BC00002900390049000BF3748806940F02000B5
:104BD000354988610846806900F02000009000BFD8
:104BE00000BF00BF0846806940F0080088610846A1
:104BF000806900F00800009000BF00BF00BF0846B9
:104C0000806940F0040088610846806900F0040073
:104C1000009000BF00BF002246F2E0312348FFF7BA
:104C20009DF800224FF400412148FFF797F84FF418
:104C3000805001901F4802900020039001A91B485A
:104C4000FEF7EAFE4FF4C0400190112002900020D0
:104C500003900320049001A91448FEF7DDFE4FF4F1
:104C60000040019001200290002003900220049057
:104C700001A90F48FEF7D0FE4FF478700190012093
:104C80000290002003900320049001A90748FEF73A
:104C9000C3FE002201212820FFF720F92820FFF77A
:104CA0000DF905B000BD000000100240000C0140ED
:104CB000000801400000111010B50B480B490860B6
:104CC0004FF4E1304860002108488160C160016113
:104CD0000C21416100218161C161FFF71CFE08B117
:104CE000FEF781FE10BD000000380140C802002020
:104CF00000BFFEE700BFFEE71FB54FF40040009085
:104D00000020019002900320039069460148FEF7BD
:104D100083FE1FBD000801401FB54FF40040009006
:104D20000120019000200290032003906946024870
:104D3000FEF772FE1FBD00000008014008B50849DB
:104D40000968C9084FF47A72B1FBF2F1414300914E
:104D500000BF00BF00994A1E00920029F9D108BD8A
:104D60000C00002010B50446A18801222068FEF73F
:104D7000F5FF10BD10B50446A18800222068FEF79B
:104D8000EDFF10BD10B50446E18801222068FEF752
:104D9000E5FF10BD10B50446E18800222068FEF74B
:104DA000DDFF10BD10B50446E1882068FEF7C4FFA2
:104DB00010BD1FB50446E0880090002001900290CD
:104DC0000320039069462068FEF726FE1FBD1FB52D
:104DD0000446E088009011200190002002900320FA
:104DE000039069462068FEF717FE1FBD10B503F05B
:104DF0006FFA04F0CDFBBDE8104003F083BA00B5B4
:104E00008FB0282105A8FBF736FA14216846FBF776
:104E100032FA01200590000406900020079001203E
:104E2000099002200C90C1030D914FF4E0110E91F6
:104E300005A8FFF7EBF908B1FEF7D5FD0F200090AC
:104E400002200190002002904FF480600390002027
:104E5000049002216846FFF793F808B1FEF7C3FDFE
:104E60000FB000BD10B5002100200022214B5B686F
:104E700003F00C0121B1042906D0082928D107E04C
:104E80001D4B1E4C236027E01B4B1C4C236023E072
:104E9000184B5B6803F47010164B5B6803F48032A8
:104EA000022303EB904022B9154B4343134C23607C
:104EB0000DE0104B5B6803F4003323B1104B434308
:104EC0000E4C236003E00C4B43430C4C236003E087
:104ED000094B0A4C236000BF00BF064B5B68C3F35D
:104EE0000313084CE15C054B1B68CB40034C23606B
:104EF00010BD00000010024000127A000C000020DB
:104F000000093D0098A100087047000010B5024854
:104F1000FFF73BFC10BD00001003002010B5026835
:104F20001C4B984208D0B0F1804F05D01A4B9842E4
:104F300002D01A4B984203D122F070024B681A43F8
:104F4000144B984208D0B0F1804F05D0124B9842D4
:104F500002D0124B984203D122F44072CB681A431C
:104F600022F080034C6943EA040202608B68C3624A
:104F70000B688362074B984201D10B6903630123DD
:104F80004361036903F001031BB1036923F00103CB
:104F9000036110BD002C01400004004000080040E7
:104FA0002DE9F14F94B00020129026481190264828
:104FB000109026480F9026480E900E98FBF74BFC59
:104FC000CDE90A010F98FBF746FCCDE902011199E2
:104FD0001498FBF721FA0190FBF73DFC804602F0A4
:104FE0004BFA0646DDE90223FBF76DFBCDE9040130
:104FF0004FF07E501099FBF70FFA0646FBF72BFC9B
:105000000446DDE90423FBF745FA02460B46CDE9E9
:10501000060100200F49FBF756FBCDE90801DDE949
:105020000A23FBF7D8FA00220B4BCDE90C01FBF762
:1050300031FA8246FBF73AFC1290129815B0BDE89F
:10504000F08F000000401C463313954300E0764586
:10505000339388430000F03F0000E03F00BF00BFF3
:1050600002680C3252E8002F22F4907102680C3270
:1050700042E80013002BF3D100BF00BF00BF02685D
:10508000143252E8002F22F001010268143242E883
:105090000013002BF3D100BF016B01290ED100BF1B
:1050A00000BF02680C3252E8002F22F010010268A3
:1050B0000C3242E80013002BF3D100BF202180F80E
:1050C000421000210163704770B5044621680969E8
:1050D00021F44051E2681143226811612269A168FC
:1050E0001143626941EA02052168C96841F20C6214
:1050F000914329432268D1602168496921F44071B4
:10510000A2691143226851612D4A2168914202D15E
:10511000FFF734F801E0FFF721F800EBC00101EBE5
:10512000001162689200B1FBF2F100EBC00202EBE9
:10513000001263689B00B2FBF3F26423B2FBF3F24C
:1051400002EBC20303EB0212A1EB8201322202EB5B
:1051500001116422B1FBF2F101F0F00100EBC00299
:1051600002EB001263689B00B2FBF3F26423B2FB14
:10517000F3F201EB021200EBC00101EB00116368D6
:105180009B00B1FBF3F100EBC00303EB0013666877
:10519000B600B3FBF6F36426B3FBF6F303EBC306EA
:1051A00006EB0313A1EB8301322303EB011164230C
:1051B000B1FBF3F101F00F0111442268916070BD61
:1051C000003801402DE9F84304460D46174698463D
:1051D000089E31E0701C70B3FEF7C6FDA0EB08001E
:1051E000B04200D816B90320BDE8F8832068C06833
:1051F00000F00400F8B1802D1ED0402D1CD0206896
:105200000068C0F3C000B0B100BF0020009020686B
:105210000068009020684068009000BF00BF2046F2
:10522000FFF71CFF0820606400BF002084F84000E6
:1052300000BF0120D8E7FFE7206800682840A842A7
:1052400001D1012000E00020B842C3D00020CBE70C
:1052500000BFFEE70FB4084B10B504A902AA0398DB
:1052600000F0D6F9044602A9002000F067FD2046B0
:1052700010BC5DF814FB00003D5D000802480068AA
:10528000C0F30220704700000CED00E010B50028CC
:1052900004DB0A07130E054A135406E00A07140E2E
:1052A000034A00F00F031B1FD45410BD00E400E0BC
:1052B00018ED00E02DE9F0414F1E00EBC701044658
:1052C000D1E9000115461E4637F006020DD02A46E8
:1052D0003346FBF786F97F1E04EBC703D3E90023AF
:1052E000FBF7D8F837F00602F1D1022F25D0042FB2
:1052F00013D0062F18BFBDE8F0812A463346FBF7CE
:1053000070F9D4E90A23FBF7C5F82A463346FBF7C0
:1053100068F9D4E90823FBF7BDF82A463346FBF7C2
:1053200060F9D4E90623FBF7B5F82A463346FBF7C4
:1053300058F9D4E90423FBF7ADF82A463346FBF7C6
:1053400050F9D4E90223FBF7A5F82A463346FBF7C8
:1053500048F9D4E90023BDE8F041FBF79BB8000011
:105360000022134610460149FBF7ADB90000F03F9B
:105370000122FBF7C7BB0022134610461146FBF77C
:10538000A2B90000002807D00F4910F0FF0F05D088
:10539000C0B2085C401C70470020704710F47F4F7B
:1053A00004D0C0F30720085C0930704710F47F0F69
:1053B00004D0C0F30740085C1130704701EB106067
:1053C000007819307047000061A3000802E008C8A7
:1053D000121F08C1002AFAD170477047002001E06F
:1053E00001C1121F002AFBD170470000014908606B
:1053F00070470000C40200202DE9FF5F82B0002149
:10540000DDE90430020DDDF840B0034318D044F666
:105410001050A2F2FF3242431514119801281FD0F8
:10542000A5EB0B00401C5FEA000A4FF000064E4F50
:10543000DFF83891B046504615D5CAF1000413E0A4
:10544000119801244AA3012801D16FEA0B010298A7
:10545000119AC0E90031C0E9024206B0BDE8F09FF0
:10546000CBF10000DFE704460021404A491842EB37
:105470000450CDE9001012E0E00707D032463B4669
:1054800040464946FBF7ADF88046894632463B46E2
:1054900010461946FBF7A5F806460F466410002C87
:1054A000EAD1DDE90401DDE90023BAF1000F06DAF3
:1054B000FBF797F842464B46FBF793F805E0FBF7FE
:1054C00002F942464B46FBF7FEF804460E46002220
:1054D000284BFBF747FB03D84FF0FF30014607E0AE
:1054E0000022254B20463146FAF7D4FFFBF721FB7B
:1054F000102409E0002C0ADB0A220023FBF71CFA27
:10550000039B30321A55641E50EA0102F2D1641C2A
:10551000039AC4F111031444119A012A03D0012201
:1055200008430DD10AE0084304D000204FF0110BCE
:10553000119072E7A3EB0B056D1E0DE05B4504DDDA
:105540004FF0000205F1010504E003DA4FF000021C
:10555000A5F10105002AECD002981199C0E90231A9
:10556000C0E9004579E70000000014400000F03F6A
:10557000300000000000F0430000E03FF0B589B0CB
:1055800005460F4616460024002D05D140F21112A3
:105590001B491CA002F05EFC3EB94FF48972184909
:1055A00019A002F057FC00E0641C295D202903D0FB
:1055B000092901D0BC42F7D3B4B12146284602F0F4
:1055C00015FA0446A4B120220021684602F03EFFED
:1055D0006A463946284602F05DFA68B16946A04736
:1055E000306009B00020F0BD09B04FF0FF30F0BDD1
:1055F00009B04FF0FF30F0BD09B04FF0FF30F0BD03
:10560000B0A10008636D6400726574700000000052
:105610002DE9FF4F95B09A46884606460025EEE1F3
:10562000252877D100242746F94A0121039400E078
:10563000044316F8013F203B01FA03F01042F7D172
:1056400030782A2811D06FF02F033078A0F1300283
:10565000092A16D8039A44F0020402EB820203EBF3
:1056600042021044761C0390EFE758F8042B039293
:10567000002A03DA504244F40054039044F0020438
:10568000761C30782E2816D116F8010F44F0040449
:105690002A280DD06FF02F023078A0F13003092BAB
:1056A00009D807EB870302EB4303C718761CF3E71F
:1056B00058F8047B761C30786C280FD006DC4C2818
:1056C00017D068280DD06A2814D104E0742810D0AF
:1056D0007A280FD10DE044F400140AE044F4801459
:1056E00001E044F440147278824202D104F580143F
:1056F000761C761C307866280BD013DC582877D0BF
:1057000009DC002875D04528F6D04628F4D0472873
:105710001AD193E118E0632835D0642879D0652840
:1057200012D18BE1702873D008DC6728F1D069288A
:105730006FD06E280DD06F2806D1ACE073282CD026
:10574000752874D0782853D05246179990476D1C0D
:1057500054E1C4F30250022809D003280DD0D8F830
:10576000001004280DD00D6008F1040846E1D8F8B7
:105770000010EA17C1E90052F6E7D8F800100D80D2
:10578000F2E70D70F0E718F8041B8DF80010002008
:105790008DF80100EB46012003E058F804BB4FF000
:1057A000FF3061074FF0000102D40DE009F1010163
:1057B0008946B9420FDA8145F8DB1BF80910002948
:1057C000F4D108E009F1010189468142FADB1BF8B6
:1057D00009100029F6D103985346A0EB090721468A
:1057E0003846179A00F080FA284400EB090507E0D4
:1057F00044E008E10DE01BF8010B52461799904771
:10580000B9F10109F7D2534621463846179AF2E01A
:1058100039E00A21C4F302524FF0000B0091022A32
:1058200006D058F8040BC117032A09D00AE023E078
:1058300008F1070020F00702F2E80201904605E0B7
:1058400000B2C117042A01D140B2C117002906DAFB
:105850000A460021404261EB02012D2202E02205AE
:1058600004D52B228DF80420012203E0E20701D0A9
:105870002022F7E7914657E00A2100E010214FF07F
:10588000000B00910BE010214FF0000B44F00404DA
:105890000827009103E008204FF0000B0090C4F3AC
:1058A0000252022A05D058F8040B0021032A08D01E
:1058B00008E008F1070020F00702F2E80201904634
:1058C00003E080B2042A00D1C0B24FF000092207E1
:1058D0002AD53278702A07D0DDF800C08CF0100C81
:1058E0005CEA0B0C05D00EE040228DF8042001226A
:1058F00008E050EA010306D030238DF804308DF81B
:10590000052002229146009B83F0080353EA0B0313
:105910000AD150EA010201D1620705D530228DF883
:1059200004204FF001097F1E3278582A04D039A292
:105930000C920CAA02920BE03BA2F9E75B46009A9C
:10594000FAF7FAFF0C9B9B5C029A521E02921370AC
:1059500050EA0102F2D1029804A9081A00F1200BC2
:10596000600702D524F4803400E001275F4502DDA2
:10597000A7EB0B0000E0002000EB0B010090039868
:105980004944401A0390E00306D453462146179A2F
:10599000039800F0A9F90544002706E001A8524643
:1059A000C05D179990476D1C7F1C4F45F6DBE003E7
:1059B0000CD553462146179A039800F095F90544F3
:1059C00004E030205246179990476D1C0099481EFC
:1059D00000900029F5DC08E0029802995246007810
:1059E000491C0291179990476D1CBBF10001ABF166
:1059F000010BF1DC5BE100F065F90544761C3078C1
:105A000000287FF40DAE19B02846BDE8F08F0000E5
:105A10000928010030313233343536373839616284
:105A20006364656600000000303132333435363748
:105A3000383941424344454600000000600700D425
:105A4000062708F1070020F00700F0E8022380464F
:105A500003F0004C5FEA0C0001D097A009E020059C
:105A600001D596A005E0E00701D095A001E0AFF2D6
:105A70004C001390307823F0004365280CD006DCEE
:105A8000452809D046281DD047287FD13BE066280D
:105A900018D067287AD136E00021112F01DB1120C0
:105AA00000E0781CCDE9000104A90CA8FFF7A4FCD4
:105AB000DDE90D010C9A4FF0000B07F1010910927E
:105AC00000914EE04FF000400097CDE9011004A98D
:105AD0000CA8FFF791FCDDE90D020C9B0F994FF02C
